:060000000A128A110C280F
:10000800FE00030EF1000A08F2000A128A159C2E5F
:100018000A128A110F28F801F901FA0183135E30D8
:1000280084006F300A128A152F260A128A11A0300E
:100038008400A8300A128A152F260A128A11830111
:100048000A128A11812CD0300A128A158C260A12BB
:100058008A113B300A128A157C260A128A110A1262
:100068008A1540260A128A11D1300A128A158C265E
:100078000A128A1100300A128A152F270A128A11C9
:1000880083120313DA00DB0100300A128A152F27C6
:100098000A128A1183120313DC00DD015C08DD00FB
:1000A800DC015A085C0483160313A40083120313AB
:1000B8005B085D0483160313A50000300A128A1535
:1000C8002F270A128A1183120313DA00DB0100308A
:1000D8000A128A152F270A128A1183120313DC00C9
:1000E800DD015C08DD00DC015A085C04831603139B
:1000F800A200831203135B085D0483160313A30095
:1001080001300A128A152F270A128A118312031343
:10011800DA00DB0100300A128A152F270A128A1129
:1001280083120313DC00DD015C08DD00DC015A08E2
:100138005C0483160313A000831203135B085D0499
:1001480083160313A1000A128A1540260A128A117F
:100158008330F3000030F400831603132508F600FB
:100168002408F5000A128A11CF250A128A11740888
:1001780083120313A5007308A4006430A60000309E
:10018800A7000A128A1508270A128A118312031374
:100198002508EE002408ED008330F3000030F40059
:1001A800831603132308F6002208F5000A128A11A1
:1001B800CF250A128A11740883120313A500730845
:1001C800A4006430A6000030A7000A128A15082788
:1001D8000A128A11831203132508EC002408EB0085
:1001E800EE1FF728F82808296D09DA006E09DB00E8
:1001F800DA0A0319DB0A5A08E4005B08E500013053
:10020800E0000030E1000A29E001E101EC1F0D29BE
:100218000E291E296B09DA006C09DB00DA0A0319BA
:10022800DB0A5A08E2005B08E3000130DE00003018
:10023800DF002029DE01DF01F701F70A01300A1289
:100248008A15E2260A128A111B3083120313D6007C
:100258008030D7000A128A155B270A128A110A12FF
:100268008A110F230A128A11831203132B08D6004E
:100278002C08D7000A128A155B270A128A111B302C
:1002880083120313D6008030D7000A128A11D527AB
:100298000A128A110A128A110F230A128A1183126A
:1002A80003132B08D6002C08D7000A128A11D52769
:1002B8000A128A11F701F70A02300A128A15E22691
:1002C8000A128A111F3083120313D6008030D70018
:1002D8000A128A155B270A128A110A128A119D21AD
:1002E8000A128A11831203132B08D6002C08D70090
:1002F8000A128A155B270A128A111F308312031308
:10030800D6008030D7000A128A11D5270A128A111E
:100318000A128A119D210A128A11831203132B08CB
:10032800D6002C08D7000A128A11D5270A128A117A
:100338000800831203135E035F04031DA429A52983
:10034800572A2D30AD002D08AF001030F3002730AC
:10035800F4006308F6006208F5000A128A11CF2536
:100368000A128A1173080A128A115A270A128A1164
:1003780083120313AD002D08B0000A30A40000302A
:10038800A500E830F3000330F4006308F6006208C3
:10039800F5000A128A11CF250A128A1174088312ED
:1003A8000313A7007308A6000A128A11FF260A126F
:1003B8008A118312031324080A128A115A270A126F
:1003C8008A1183120313AD002D08B1000A30A4006E
:1003D8000030A5006430F3000030F4006308F60034
:1003E8006208F5000A128A11CF250A128A117408C8
:1003F80083120313A7007308A6000A128A11FF26A6
:100408000A128A118312031324080A128A115A271E
:100418000A128A1183120313AD002D08B2000A30A4
:10042800A4000030A5000A30F3000030F40063088F
:10043800F6006208F5000A128A11CF250A128A11FD
:10044800740883120313A7007308A6000A128A11FE
:10045800FF260A128A118312031324080A128A112A
:100468005A270A128A1183120313AD002D08B3000C
:100478000A30A4000030A5006308A7006208A6009F
:100488000A128A11FF260A128A11831203132408FA
:100498000A128A115A270A128A1183120313AD000D
:1004A8002D08B4000A2B5E085F04031D5C2A5D2A30
:1004B8000A2B1030F3002730F4006C08F6006B08A4
:1004C800F5000A128A11CF250A128A1173080A1236
:1004D8008A115A270A128A1183120313AD002D08B4
:1004E800AF000A30A4000030A500E830F300033064
:1004F800F4006C08F6006B08F5000A128A11CF2583
:100508000A128A11740883120313A7007308A6003D
:100518000A128A11FF260A128A1183120313240869
:100528000A128A115A270A128A1183120313AD007C
:100538002D08B0000A30A4000030A5006430F30094
:100548000030F4006C08F6006B08F5000A128A11F6
:10055800CF250A128A11740883120313A70073089F
:10056800A6000A128A11FF260A128A11831203139F
:1005780024080A128A115A270A128A1183120313AD
:10058800AD002D08B1000A30A4000030A5000A30E3
:10059800F3000030F4006C08F6006B08F5000A124E
:1005A8008A11CF250A128A11740883120313A7002F
:1005B8007308A6000A128A11FF260A128A118312EA
:1005C800031324080A128A115A270A128A1183125D
:1005D8000313AD002D08B2000A30A4000030A500B6
:1005E8006C08A7006B08A6000A128A11FF260A12D7
:1005F8008A118312031324080A128A115A270A122D
:100608008A1183120313AD002D08B3002E30AB00FE
:100618000030AC0008008312031360036104031D5B
:10062800162B172BC92B2D30AD002D08AF0010301D
:10063800F3002730F4006508F6006408F5000A1294
:100648008A11CF250A128A1173080A128A115A27A9
:100658000A128A1183120313AD002D08B0000A3064
:10066800A4000030A500E830F3000330F40065086A
:10067800F6006408F5000A128A11CF250A128A11B9
:10068800740883120313A7007308A6000A128A11BC
:10069800FF260A128A118312031324080A128A11E8
:1006A8005A270A128A1183120313AD002D08B100CC
:1006B8000A30A4000030A5006430F3000030F400D4
:1006C8006508F6006408F5000A128A11CF250A1297
:1006D8008A11740883120313A7007308A6000A126C
:1006E8008A11FF260A128A118312031324080A1298
:1006F8008A115A270A128A1183120313AD002D0892
:10070800B2000A30A4000030A5000A30F30000301F
:10071800F4006508F6006408F5000A128A11CF256E
:100728000A128A11740883120313A7007308A6001B
:100738000A128A11FF260A128A1183120313240847
:100748000A128A115A270A128A1183120313AD005A
:100758002D08B3000A30A4000030A5006508A700E2
:100768006408A6000A128A11FF260A128A11831247
:10077800031324080A128A115A270A128A118312AB
:100788000313AD002D08B4007C2C60086104031D20
:10079800CE2BCF2B7C2C1030F3002730F4006E08C2
:1007A800F6006D08F5000A128A11CF250A128A117F
:1007B80073080A128A115A270A128A11831203131C
:1007C800AD002D08AF000A30A4000030A500E830C5
:1007D800F3000330F4006E08F6006D08F5000A1205
:1007E8008A11CF250A128A11740883120313A700ED
:1007F8007308A6000A128A11FF260A128A118312A8
:10080800031324080A128A115A270A128A1183121A
:100818000313AD002D08B0000A30A4000030A50075
:100828006430F3000030F4006E08F6006D08F5003F
:100838000A128A11CF250A128A1174088312031327
:10084800A7007308A6000A128A11FF260A128A1145
:100858008312031324080A128A115A270A128A11CA
:1008680083120313AD002D08B1000A30A400003034
:10087800A5000A30F3000030F4006E08F6006D0899
:10088800F5000A128A11CF250A128A1174088312F8
:100898000313A7007308A6000A128A11FF260A127A
:1008A8008A118312031324080A128A115A270A127A
:1008B8008A1183120313AD002D08B2000A30A40078
:1008C8000030A5006E08A7006D08A6000A128A115C
:1008D800FF260A128A118312031324080A128A11A6
:1008E8005A270A128A1183120313AD002D08B30088
:1008F8002E30AB000030AC0008000A128A158D2794
:100908000A128A110A128A1137250A128A118316C5
:10091800031388010A128A1560260A128A110B30FD
:1009280083160313A8002808F70001300A128A1555
:10093800E2260A128A11163083120313D600803079
:10094800D7000A128A155B270A128A110A128A111D
:1009580027200A128A11823083160313A900DD307A
:10096800A800A80BB52CA90BB52C0A128A15372696
:100978000A128A115030F3000030F4000A128A1566
:100988006D260A128A117A0883160313A800A90192
:100998002808F3002908F4000A128A156D260A129D
:1009A8008A110A128A1540260A128A110330831600
:1009B8000313AA000830A9007630A800A80BE22C7F
:1009C800A90BE22CAA0BE22C00000B3083160313B0
:1009D800A8002808F70002300A128A15E2260A122F
:1009E8008A117803031DF92CFA2C072DFA0101301E
:1009F80083120313D6008030D7000A128A155B27AA
:100A08000A128A11AA2C02307806031D0C2D0D2D0E
:100A18001B2DFA01FA0A0F3083120313D600803017
:100A2800D7000A128A155B270A128A11AA2C0330EA
:100A38007806031D202D212D332D02308316031334
:100A4800A8002808FA00083083120313D600803063
:100A5800D7000A128A155B270A128A11AA2CAA2C17
:100A68000A128A110C280230F7000430F600BA3056
:100A7800F500F50B3D2DF60B3D2DF70B3D2D000038
:100A8800D0300A128A158C260A128A1119300A12D5
:100A98008A157C260A128A1107300A128A157C26C2
:100AA8000A128A110A128A1540260A128A11D030AF
:100AB8000A128A158C260A128A116B300A128A15B4
:100AC8007C260A128A1101300A128A157C260A121B
:100AD8008A110A128A1540260A128A11D0300A127F
:100AE8008A158C260A128A111A300A128A157C264F
:100AF8000A128A1100300A128A157C260A128A11F3
:100B08000A128A1540260A128A11D0300A128A154A
:100B18008C260A128A111C300A128A157C260A129F
:100B28008A1100300A128A157C260A128A110A12C2
:100B38008A1540260A128A11D0300A128A158C2684
:100B48000A128A111B300A128A157C260A128A1187
:100B580018300A128A157C260A128A110A128A1576
:100B680040260A128A11D0300A128A158C260A12D7
:100B78008A1138300A128A157C260A128A11013025
:100B88000A128A157C260A128A110A128A15402628
:100B98000A128A11080083120313A101F41FD52D2C
:100BA800D62DDD2DF309F409F30A0319F40AA1017E
:100BB800A10AF61FE02DE12DEA2DF509F609F50A3F
:100BC8000319F60A0130F7007708A106A201A3016C
:100BD800730874040319F12DF22D292EA001A00A1F
:100BE800002E01300310F30DF40DFF3E031DF62D0A
:100BF8000130F7007708A007F41F032E042EF52D07
:100C080001300310A20DA30DFF3E031D052E74082D
:100C18007602031D112E73087502031C142E152E5F
:100C28001C2E7308F5027408031CF603F60222143E
:100C380001300310F40CF30CFF3E031D1D2E013090
:100C4800A002031D282E292E042E210803192D2E5B
:100C58002E2E332EA209A309A20A0319A30A2308D8
:100C6800F4002208F3000800003083120313AB00DD
:100C78000030AA000030A9000030A8002308220490
:100C8800210420040319492E4A2E972EAC01AC0AE0
:100C98005A2E0130F3000310A00DA10DA20DA30DD3
:100CA800F30B4F2E0130F3007308AC07A31F5D2E22
:100CB8005E2E4D2E0130F3000310A80DA90DAA0DCC
:100CC800AB0DF30B602E23082702031D752E220897
:100CD8002602031D752E21082502031D752E2008E6
:100CE8002402031C782E792E882E2008A4022108BD
:100CF800031C210FA5022208031C220FA6022308A9
:100D0800031C230FA702281401300310A30CA20C04
:100D1800A10CA00CFF3E031D892E0130AC02031D5F
:100D2800962E972E5E2E2B08A3002A08A2002908CB
:100D3800A1002808A000080000300A128A152926F8
:100D48000A128A11343083120313A100F130A00073
:100D5800A00BAC2EA10BAC2E30300A128A15AE2691
:100D68000A128A110D3083120313A100FB30A00070
:100D7800A00BBC2EA10BBC2E30300A128A15AE2651
:100D88000A128A111D3083120313A1009030A000AB
:100D9800A00BCC2EA10BCC2E000030300A128A15E5
:100DA800AE260A128A1138300A128A15AE260A129D
:100DB8008A110C300A128A15AE260A128A110130DD
:100DC8000A128A15AE260A128A1106300A128A15E4
:100DD800AE260A128A11023083120313A2000430CD
:100DE800A100B930A000A00BF72EA10BF72EA20B83
:100DF800F72EFE2E080083120313AA01A71F052F42
:100E0800062F0D2FA609A709A60A0319A70AAA01E2
:100E1800AA0AA51F102F112F162FA409A509A40A85
:100E28000319A50A2408250403191B2F1C2F4B2F6F
:100E3800A901A90A2A2F01300310A40DA50DFF3E10
:100E4800031D202F0130A8002808A907A51F2D2F52
:100E58002E2F1F2F25082702031D342F24082602B2
:100E6800031C372F382F3E2F2408A6022508031C01
:100E7800A703A70201300310A50CA40CFF3E031D15
:100E88003F2F0130A902031D4A2F4B2F2E2F2A086E
:100E980003194F2F502F552FA609A709A60A031982
:100EA800A70A2708A5002608A4000800F500702F47
:100EB8003030982F3130982F3230982F3330982F88
:100EC8003430982F3530982F3630982F3730982F68
:100ED8003830982F3930982F7508F300F4017408CA
:100EE800003A0319782F982F7308003A03195C2FDA
:100EF800013A03195E2F033A0319602F013A0319C7
:100F0800622F073A0319642F013A0319662F033A2F
:100F18000319682F013A03196A2F0F3A03196C2F26
:100F2800013A03196E2F982F08008316031318121D
:100F38008312031398171813181683160313981699
:100F4800831203130C12831603130C121813831243
:100F5800031318119810C72F831603131815831637
:100F68000317871119308316031399009A01D42F98
:100F78008316031318118316031787110C30831671
:100F880003139900BA2F7408003A0319CC2FD42FF1
:100F98007308043A0319B02F0C3A0319BC2FD42F45
:100FA8000800EC2F5708FF00560884000A128A151B
:100FB80000200A128A110A128A1549260A128A1171
:100FC800013083120313D6070318D70A0030D70756
:100FD800831203135708FF00560884000A128A1563
:100FE80000200A128A11003A031DFB2FFC2FD62F6E
:020FF8000800EF
:10100000FF1B0A2883137F1883170008840A03191B
:10101000FF0A080008308A000408840A82070034A6
:1010200020345634653472346434653400342034EA
:10103000203452346F346A346F3400345934653498
:101040006C346C346F3477340034533465346D341D
:101050003A340034473478343A34003447347934FD
:041060003A340034EA
:101C5200F3007308831203138800080064008001F4
:101C6200840A0406031900340406302E0A128A1567
:101C720053260A128A1583160313111408000A1236
:101C82008A1553260A128A158316031311150800A2
:101C9200F300831203130C1E4F2E502E4A2E73088C
:101CA20099000800831603131419582E592E532E27
:101CB20011081F39031D5E2E5F2E532E08000030BF
:101CC2000A128A15AE260A128A1501300A128A15DC
:101CD200AE260A128A1508000A128A1553260A121B
:101CE2008A1573088312031393008C1D792E7A2EA2
:101CF200762E8C110800F3000A128A1553260A1256
:101D02008A1573088312031393008C1D892E8A2E61
:101D1200862E8C110800F4000A128A1553260A1224
:101D22008A1583160313111474080A128A157C2665
:101D32000A128A150800831203138C1EA12EA22EEA
:101D4200A72E1A08F0007008F8008C1272088A0098
:101D5200710E8300FE0E7E0E0900F600831203133D
:101D6200061076080A128A1529260A128A15831283
:101D7200031386140B30F5006230F400F40BBF2E0F
:101D8200F50BBF2E00008312031386100800F60025
:101D920083120313061476080A128A1529260A12D8
:101DA2008A158312031386146830F500E430F400B8
:101DB200F40BD92EF50BD92E0000831203138610D3
:101DC200080083120313A1002103031DE92EEA2E4A
:101DD200F62E77087F3EA0002008A20022080A12F1
:101DE2008A15AE260A128A15072F02302106031D14
:101DF200FB2EFC2E072F7708BF3EA0002008A20072
:101E020022080A128A15AE260A128A1508008312BF
:101E12000313A801A901241C0F2F102F162F260827
:101E2200A8070318A90A2708A90701300310A60D5D
:101E3200A70DFF3E031D172F01300310A50CA40CA4
:101E4200FF3E031D1E2F24082504031D292F2A2FC0
:101E52000C2F2908A5002808A4000800F400831606
:101E620003139115141C362F372F332F83120313AC
:101E72001308F3007308F5007408031D412F422F65
:101E82004B2F8316031391121116111A492F4A2F41
:101E9200462F532F8316031391161116111A522F20
:101EA200532F4F2F83128C1D572F582F532F8C11C6
:101EB2007508080083120313D801D9017A2F580834
:101EC2005607840059080318590A5707FF000A12D7
:101ED2008A1500200A128A150A128A15C8260A12C1
:101EE2008A15013083120313D8070318D90A003068
:101EF200D90758085607840059080318590A570782
:101F0200FF000A128A1500200A128A15003A031DE0
:101F12008B2F8C2F602F08008316031788018901ED
:101F22008316031385018601880183120313860138
:101F3200880185017030831603138F040F14083053
:101F4200F3000030F4000A128A1199270A128A1546
:101F52000A128A11A0260A128A150030831203136C
:101F6200B0000130AF008630AE00A030AD000A12E2
:101F72008A15C6270A128A15831203138C12831636
:101F820003138C160B178B170800283083120313C8
:101F92009400831603139101831203132D08F40096
:101FA2002E08F5002F08F6003008F7000230031063
:101FB200F40DF50DF60DF70DFF3E031DD82F770832
:101FC200A3007608A2007508A1007408A0000030E2
:101FD200A7007A30A6001230A5000030A4000A1231
:101FE2008A1138260A128A15831203132008FF3E2B
:0E1FF200831603139300940187150716080049
:08400000FF3FFF3FFF3FFF3FC0
:04400E00D420FF3F7C
:00000001FF
